:100000000C9463000C948B000C948B000C94C9032B
:100010000C94C9030C94C9030C948B000C948B00B2
:100020000C948B000C948B000C948B000C948B0024
:100030000C948B000C948B000C948B000C948B0014
:100040000C9427030C948B000C9497030C9471036D
:100050000C948B000C948B000C948B000C948B00F4
:100060000C948B000C948B000000000024002700EF
:100070002A0000000008000201000003040700003D
:1000800000000000000000000000230026002900FE
:1000900000000000250028002B00040404040404D0
:1000A0000404020202020202030303030303010227
:1000B00004081020408001020408102001020408F6
:1000C00010204304270611241FBECFEFD8E0DEBF67
:1000D000CDBF11E0A0E0B1E0E6E0FDE002C0059098
:1000E0000D92A432B107D9F722E0A4E2B1E001C039
:1000F0001D92AD32B207E1F710E0C2E6D0E004C0D5
:100100002197FE010E946B06C136D107C9F70E94F4
:10011000EE040C9476060C94000090E0FC01EE587E
:10012000FF4F2491FC01E255FF4F3491FC01E6564C
:10013000FF4FE491EE2309F43CC0222339F1233030
:1001400091F038F42130A9F0223001F584B58F7D8B
:1001500012C0273091F02830A1F02430B9F48091FA
:1001600080008F7D03C0809180008F778093800016
:100170000DC084B58F7784BD09C08091B0008F77A2
:1001800003C08091B0008F7D8093B000F0E0EE0F4F
:10019000FF1FE057FF4FA591B4919FB7F8946111ED
:1001A00004C08C913095382302C0EC913E2B3C93D7
:1001B0009FBF0895CF93DF9390E0FC01E255FF4F7E
:1001C0002491FC01E656FF4F8491882361F190E071
:1001D000880F991FFC01E859FF4FC591D491FC018C
:1001E000E057FF4FA591B491611109C09FB7F894F2
:1001F0008881209582238883EC912E230BC0623066
:1002000061F49FB7F8948881322F309583238883D7
:10021000EC912E2B2C939FBF06C08FB7F894E881EA
:100220002E2B28838FBFDF91CF9108953FB7F8948D
:1002300080916D0190916E01A0916F01B09170015C
:1002400026B5A89B05C02F3F19F00196A11DB11D31
:100250003FBFBA2FA92F982F8827820F911DA11D6C
:10026000B11DBC01CD0142E0660F771F881F991FA9
:100270004A95D1F708958F929F92AF92BF92CF92F5
:10028000DF92EF92FF920E9416014B015C0188EE13
:10029000C82E83E0D82EE12CF12C0E941601DC013F
:1002A000CB0188199909AA09BB09883E9340A10589
:1002B000B10598F321E0C21AD108E108F10888EEEF
:1002C000880E83E0981EA11CB11CC114D104E10466
:1002D000F10419F7FF90EF90DF90CF90BF90AF90AF
:1002E0009F908F900895CF92DF92EF92FF920F939D
:1002F0001F93CF93DF936C017A018B01C0E0D0E0B4
:10030000CE15DF0581F0D8016D918D01D601ED91FB
:10031000FC910190F081E02DC6010995892B11F027
:100320002196EECF7E01C701DF91CF911F910F91F2
:10033000FF90EF90DF90CF900895FC01538D448D96
:10034000252F30E0842F90E0821B930B541710F080
:10035000CF96089501970895FC01918D828D98178D
:1003600061F0828DDF01A80FB11D5D968C91928D99
:100370009F5F9F73928F90E008958FEF9FEF089596
:10038000FC01918D828D981731F0828DE80FF11D5F
:10039000858D90E008958FEF9FEF0895FC01918D7A
:1003A000228D892F90E0805C9F4F821B91098F7373
:1003B0009927089581E791E00E94CE0121E0892BE1
:1003C00009F420E0822F0895FC01848DDF01A80F3D
:1003D000B11DA35ABF4F2C91848D90E001968F736D
:1003E0009927848FA689B7892C93A089B1898C918C
:1003F000837080648C93938D848D981306C00288DB
:10040000F389E02D80818F7D80830895EF92FF92A4
:100410000F931F93CF93DF93EC0181E0888F9B8D27
:100420008C8D981305C0E889F989808185FD26C0E7
:10043000F62E0B8D10E00F5F1F4F0F731127E02E6C
:100440008C8DE8120CC00FB607FCFACFE889F98949
:10045000808185FFF5CFCE010E94E401F1CF8B8D25
:10046000FE01E80FF11DE35AFF4FF0829FB7F894A9
:100470000B8FEA89FB89808180620AC09FB7F8945C
:10048000EE89FF896083E889F989808183708064BF
:1004900080839FBF81E090E0DF91CF911F910F910A
:1004A000FF90EF900895CF93DF93EC01888D882320
:1004B000C9F0EA89FB89808185FD05C0A889B989D1
:1004C0008C9186FD0FC00FB607FCF5CF808185FFAC
:1004D000F2CFA889B9898C9185FFEDCFCE010E941A
:1004E000E401E7CFDF91CF91089580E090E0892B80
:1004F00029F00E94DA0181110C94000008952091E6
:100500006601309167012817390771F490916401F1
:1005100080916501981741F0E0916401F0E0EC5D95
:10052000FE4F808190E008958FEF9FEF089508952A
:100530001F93CF93DF93DC015C968D919C915D9727
:10054000009739F421E030E013963C932E931297F4
:100550003BC05196ED91FC91529750962C9150973B
:10056000322F30951FB75E964C915E97742F727044
:1005700041FD6095F8944081772311F0422B01C032
:1005800043234083EC012197F1F748E0508160FF5D
:1005900002C0522B01C053235083EC012197F1F785
:1005A0006695415099F78081772319F083238083E2
:1005B00002C0282B20831FBF5C968D919C915D9774
:1005C0000197F1F781E090E0DF91CF911F910895BD
:1005D00020916601309167012817390771F48091E5
:1005E00065012091640190E0805C9F4F821B91091E
:1005F00060E470E00E944306089580E090E0089572
:10060000209166013091670128173907B9F490915C
:10061000640180916501981789F0E0916401F0E030
:10062000EC5DFE4F80812091640130E02F5F3F4FF1
:100630002F7333272093640190E008958FEF9FEF8D
:100640000895089580E090E008950E9471061F9239
:100650000F920FB60F9211242F933F938F939F9376
:10066000AF93BF938091690190916A01A0916B0152
:10067000B0916C013091680123E0230F2D3720F4F5
:100680000196A11DB11D05C026E8230F0296A11DEC
:10069000B11D209368018093690190936A01A09332
:1006A0006B01B0936C0180916D0190916E01A091EE
:1006B0006F01B09170010196A11DB11D80936D0174
:1006C00090936E01A0936F01B0937001BF91AF91B1
:1006D0009F918F913F912F910F900FBE0F901F9080
:1006E00018951F920F920FB60F9211242F933F93DC
:1006F0004F935F936F937F938F939F93AF93BF932A
:10070000EF93FF9381E791E00E94E401FF91EF9165
:10071000BF91AF919F918F917F916F915F914F9119
:100720003F912F910F900FBE0F901F9018951F9221
:100730000F920FB60F9211242F938F939F93EF93E5
:10074000FF93E0918101F09182018081E091870126
:10075000F091880182FD12C0908180918A018F5FA3
:100760008F7320918B01821751F0E0918A01F0E0A4
:10077000EF58FE4F958F80938A0101C08081FF91D1
:10078000EF919F918F912F910F900FBE0F901F901F
:1007900018951F920F920FB60F9211242F933F932B
:1007A0004F935F936F937F938F939F93AF93BF9379
:1007B000EF93FF93E0916601F0916701309709F4A0
:1007C00051C0968DA685B785858591FF04C09C9103
:1007D000892329F447C09C91892309F043C0A38948
:1007E000B4899C918589809589238C938689978982
:1007F0000197F1F7608D718DA685B785558538E035
:1008000020E0CB010197F1F7822F90E09595879535
:10081000282F4C91452309F02068315091F7868D9F
:1008200081FD20958091650190E001968F73992755
:1008300030916401381749F0A0916501B0E0AC5DDA
:10084000BE4F2C938093650103C0868D8160868F97
:10085000828D938D0197F1F7A389B4899C91858945
:10086000892B8C93FF91EF91BF91AF919F918F91C5
:100870007F916F915F914F913F912F910F900FBE9C
:100880000F901F901895109274011092730188EECA
:1008900093E0A0E0B0E08093750190937601A0937F
:1008A0007701B093780124E031E030937201209316
:1008B000710125EC30E030937E0120937D0124EC22
:1008C00030E03093800120937F0120EC30E03093C2
:1008D00082012093810121EC30E030938401209348
:1008E000830122EC30E0309386012093850126ECD1
:1008F00030E0309388012093870110928A01109292
:100900008B0110928C0110928D01109211021092A5
:1009100010028093120290931302A0931402B093DA
:10092000150286E191E090930F0280930E021092DF
:100930002502109224021092270210922602109291
:1009400029021092280210922B0210922A02609122
:100950002C026E7F6D7F60932C026695617081E042
:10096000682782E00E948D0061E082E00E94DA0048
:10097000E0EBF0E0E491E0931E02ECE9F0E0E491BA
:10098000F0E0EE0FFF1FE057FF4F85919491909399
:10099000200280931F0260E083E00E94DA008091D1
:1009A0002C0281FD04C061E083E00E948D0083E0A1
:1009B00080931A02E1EBF0E0E491E0931B02EDE991
:1009C000F0E0E491F0E0EE0FFF1FEA57FF4F859152
:1009D000949190931D0280931C020895789484B59D
:1009E000826084BD84B5816084BD85B5826085BD2B
:1009F00085B5816085BD80916E00816080936E00B9
:100A000010928100809181008260809381008091AA
:100A1000810081608093810080918000816080935B
:100A200080008091B10084608093B1008091B0001B
:100A300081608093B00080917A00846080937A0016
:100A400080917A00826080937A0080917A00816040
:100A500080937A0080917A00806880937A00109267
:100A6000C10061E08DE00E94DA00E0918101F09127
:100A7000820182E08083E0917D01F0917E0110820D
:100A8000E0917F01F091800187E6808310928901D7
:100A9000E0918501F091860186E08083E0918301F9
:100AA000F0918401808180618083E0918301F091E5
:100AB0008401808188608083E0918301F0918401CA
:100AC000808180688083E0918301F091840180813E
:100AD0008F7D8083109229021092280210922702A3
:100AE0001092260210922502109224028DEC90E0C2
:100AF00090932B0280932A0290911A02963108F06B
:100B000058C025E530E030932502209324022BECD9
:100B100030E0309327022093260220E930E0309322
:100B200029022093280240916800983058F031E063
:100B30009E3008F430E021E0822F01C0880F3A9502
:100B4000EAF701C084E0842B80936800983038F085
:100B50009E3040F0963148F020E030E008C02DE6AD
:100B600030E005C02BE630E002C02CE630E03093E8
:100B7000220220932102983030F481E001C0880FD6
:100B80009A95EAF70EC0292F30E09E3018F42850CD
:100B9000310902C02E50310981E001C0880F2A9529
:100BA000EAF78093230280912A0290912B02019709
:100BB000F1F78091280290912902892B49F1E09167
:100BC0006601F091670182E0EE30F80709F1309795
:100BD00039F0A389B4899C918589809589238C9368
:100BE00080912C028E7F80932C02109265011092CE
:100BF00064018EE092E09093670180936601E0913A
:100C00002102F0912202908180912302892B80831E
:100C10000E943B0161E08DE00E948D000E943B013B
:100C200060E08DE00E948D008EE092E00E94E8027C
:100C3000892B51F08EE092E00E940003682F81E73B
:100C400091E00E940602F0CF0E947502E1CF86E19A
:100C500091E090930F0280930E0280916601909133
:100C600067018E50924071F4E0912102F0912202CE
:100C7000908180912302809589238083109267015F
:100C800010926601089597FB072E16F4009407D082
:100C900077FD09D00E94570607FC05D03EF49095D9
:100CA00081959F4F0895709561957F4F0895AA1B78
:100CB000BB1B51E107C0AA1FBB1FA617B70710F047
:100CC000A61BB70B881F991F5A95A9F78095909579
:100CD000BC01CD010895EE0FFF1F0590F491E02DAA
:100CE000099481E090E0F8940C94760610E0C2E656
:100CF000D0E004C0FE010E946B062196C336D107E6
:060D0000C9F7F894FFCFD3
:100D060000000000060273019D015302CE01AC01F2
:100D1600C001000000009802730122039702E80256
:040D260000037F0245
:107800000C94343C0C94513C0C94513C0C94513CE1
:107810000C94513C0C94513C0C94513C0C94513CB4
:107820000C94513C0C94513C0C94513C0C94513CA4
:107830000C94513C0C94513C0C94513C0C94513C94
:107840000C94513C0C94513C0C94513C0C94513C84
:107850000C94513C0C94513C0C94513C0C94513C74
:107860000C94513C0C94513C11241FBECFEFD8E036
:10787000DEBFCDBF11E0A0E0B1E0ECE9FFE702C060
:1078800005900D92A230B107D9F712E0A2E0B1E065
:1078900001C01D92AD30B107E1F70E942D3D0C945F
:1078A000CC3F0C94003C982F959595959595959582
:1078B000905D8F708A307CF0282F295A8091C0000B
:1078C00085FFFCCF9093C6008091C00085FFFCCF60
:1078D0002093C6000895282F205DF0CF982F809127
:1078E000C00085FFFCCF9093C6000895EF92FF92F1
:1078F0000F931F93EE24FF2487018091C00087FD22
:1079000017C00894E11CF11C011D111D81E4E8164B
:1079100082E4F8068FE0080780E0180770F3E09132
:107920000401F091050109958091C00087FFE9CF1E
:107930008091C6001F910F91FF90EF9008950E94D3
:10794000763C982F8091C00085FFFCCF9093C600B5
:1079500091362CF490330CF09053892F089597555D
:10796000892F08951F930E949F3C182F0E949F3CCF
:107970001295107F810F1F9108951F93182F882350
:1079800021F00E94763C1150E1F71F9108951F935A
:10799000182F0E94763C803249F0809103018F5F5E
:1079A000809303018530C1F01F9108958091C0003C
:1079B00085FFFCCF84E18093C6008091C00085FFE5
:1079C000FCCF1093C6008091C00085FFFCCF80E102
:1079D0008093C6001F910895E0910401F091050184
:1079E00009951F9108950E94763C803241F0809164
:1079F00003018F5F80930301853081F008958091AA
:107A0000C00085FFFCCF84E18093C6008091C00058
:107A100085FFFCCF80E18093C6000895E0910401CA
:107A2000F09105010995089540E951E08823A1F0FE
:107A30002D9A28EE33E0FA013197F1F721503040CA
:107A4000D1F72D9828EE33E0FA013197F1F7215064
:107A50003040D1F7815061F708953F924F925F9285
:107A60006F927F928F929F92AF92BF92CF92DF924E
:107A7000EF92FF920F931F93CF93DF93000080E16B
:107A80008093C4001092C50088E18093C10086E015
:107A90008093C2005098589A259A81E00E94143D24
:107AA00024E1F22E9EE1E92E85E9D82E0FE0C02ECA
:107AB00010E1B12EAA24A394B1E49B2EA6E58A2E50
:107AC000F2E57F2EE0E26E2E79E4572E63E5462E36
:107AD00050E5352E0E94763C8033B1F18133B9F107
:107AE000803409F46FC0813409F476C0823409F41B
:107AF00085C0853409F488C0803531F1823521F1A3
:107B0000813511F1853509F485C0863509F48DC0BC
:107B1000843609F496C0843709F403C1853709F423
:107B200072C1863709F466C0809103018F5F80932C
:107B30000301853079F6E0910401F0910501099582
:107B40000E94763C803351F60E94F33CC3CF0E94E2
:107B5000763C803249F78091C00085FFFCCFF092DF
:107B6000C6008091C00085FFFCCF9092C600809136
:107B7000C00085FFFCCF8092C6008091C00085FFC9
:107B8000FCCF7092C6008091C00085FFFCCF609250
:107B9000C6008091C00085FFFCCF5092C600809146
:107BA000C00085FFFCCF4092C6008091C00085FFD9
:107BB000FCCF3092C6008091C00085FFFCCFB09210
:107BC000C60088CF0E94763C863808F4BDCF0E945C
:107BD000763C0E94F33C7ECF0E94763C803809F4CC
:107BE0009CC0813809F40BC1823809F43CC1883942
:107BF00009F48FC080E00E94C73C6CCF84E10E94F2
:107C0000BD3C0E94F33C66CF85E00E94BD3C0E94D3
:107C1000F33C60CF0E94763C809306010E94763C44
:107C2000809307010E94F33C55CF0E94763C80333D
:107C300009F41DC183E00E94BD3C80E00E94C73C66
:107C400049CF0E94763C809309020E94763C809343
:107C5000080280910C028E7F80930C020E94763C79
:107C6000853409F415C18091080290910902892B8D
:107C700089F000E010E00E94763CF801E85FFE4FDA
:107C800080830F5F1F4F80910802909109020817AF
:107C9000190788F30E94763C803209F045CF809125
:107CA0000C0280FF01C16091060170910701660F0F
:107CB000771F7093070160930601A0910802B091AD
:107CC00009021097C9F0E8E0F1E09B01AD014E0F09
:107CD0005F1FF999FECF32BD21BD819180BDFA9A17
:107CE000F99A2F5F3F4FE417F50799F76A0F7B1F4B
:107CF00070930701609306018091C00085FFFCCF5F
:107D0000F092C6008091C00085FFFCCFB092C60003
:107D1000E1CE83E00E94C73CDDCE82E00E94C73CFA
:107D2000D9CE0E94763C809309020E94763C8093D3
:107D300008028091060190910701880F991F909386
:107D40000701809306010E94763C853409F4A6C0A1
:107D500080910C028E7F80930C020E94763C8032D0
:107D600009F0B8CE8091C00085FFFCCFF092C6002C
:107D7000609108027091090261157105B9F140E046
:107D800050E080910C02A82FA170B82FB27011C0E2
:107D9000BB2309F45CC0E0910601F0910701319624
:107DA000F0930701E09306014F5F5F4F46175707B7
:107DB000E8F4AA2369F3F999FECF209106013091E6
:107DC000070132BD21BDF89A90B58091C00085FFB2
:107DD000FCCF9093C6002F5F3F4F30930701209355
:107DE00006014F5F5F4F4617570718F38091C00099
:107DF00085FDE5CE8091C00085FFF8CFE0CE81E023
:107E00000E94C73C67CE0E94763C803209F08CCE3F
:107E10008091C00085FFFCCFF092C6008091C00029
:107E200085FFFCCFE092C6008091C00085FFFCCFAB
:107E3000D092C6008091C00085FFFCCFC092C600E2
:107E40008091C00085FFFCCFB092C60043CEE09188
:107E50000601F091070194918091C00085FFFCCF4D
:107E60009093C6009CCF80E10E94C73C33CE0E9415
:107E7000763C0E94763C182F0E94763C112309F430
:107E800083C0113009F484C08FE00E94C73C22CE29
:107E900080910C02816080930C02E5CE80910C02EF
:107EA000816080930C0259CF809107018823880F4D
:107EB000880B8A2180930B02809106019091070123
:107EC000880F991F90930701809306018091080203
:107ED00080FF09C080910802909109020196909359
:107EE000090280930802F894F999FECF1127E091D6
:107EF0000601F0910701C8E0D1E08091080290915D
:107F00000902103091F40091570001700130D9F34B
:107F100003E000935700E89500915700017001308D
:107F2000D9F301E100935700E89509901990009169
:107F3000570001700130D9F301E000935700E89534
:107F40001395103498F011270091570001700130FB
:107F5000D9F305E000935700E895009157000170B0
:107F60000130D9F301E100935700E895329602976A
:107F700009F0C7CF103011F00296E5CF112480919F
:107F8000C00085FFB9CEBCCE8EE10E94C73CA2CD19
:0C7F900085E90E94C73C9ECDF894FFCF0D
:027F9C00800063
:040000030000780081
:00000001FF
